:020000040800F2
:1000000000280020FD0A0008A10A0008A70A00082D
:10001000AD0A0008B30A0008B90A00080000000091
:10002000000000000000000000000000BF0A0008FF
:10003000CB0A000800000000D70A0008E30A000805
:10004000450B0008450B0008450B0008450B000850
:10005000450B0008450B0008450B0008450B000840
:10006000450B0008450B0008450B0008450B000830
:10007000450B0008450B0008450B0008450B000820
:10008000450B0008450B0008450B0008450B000810
:10009000450B0008450B0008450B0008450B000800
:1000A000450B0008450B0008450B0008450B0008F0
:1000B000450B0008450B000800000000450B000838
:1000C000450B00080000000000000000450B000880
:1000D00000000000450B0008450B00080000000070
:1000E000450B0008450B0008450B00080000000008
:1000F0000000000000000000000000000000000000
:0C01000000000000000000005FF808F1A3
:10010C0010B5054C237833B9044B13B10448AFF345
:10011C0000800123237010BD0C00002000000000A3
:10012C006819000808B5034B1BB103490348AFF32A
:10013C00008008BD000000001000002068190008B5
:10014C0080B582B000AF78607B68092B00F28081AB
:10015C0001A252F823F000BF8D010008D501000860
:10016C001D02000865020008AD020008F502000837
:10017C003D03000885030008CD03000815040008A2
:10018C0000220121B54800F0BDFF00220221B34836
:10019C0000F0B8FF00220421B04800F0B3FF0022A9
:1001AC000821AE4800F0AEFF00221021AB4800F051
:1001BC00A9FF00222021A94800F0A4FF0122402120
:1001CC00A64800F09FFF44E101220121A34800F062
:1001DC0099FF00220221A14800F094FF0022042183
:1001EC009E4800F08FFF012208219C4800F08AFFF6
:1001FC0001221021994800F085FF01222021974807
:10020C0000F080FF01224021944800F07BFF20E1A8
:10021C0000220121914800F075FF002202218F4835
:10022C0000F070FF012204218C4800F06BFF0022CB
:10023C0008218A4800F066FF00221021874800F050
:10024C0061FF01222021854800F05CFF0022402143
:10025C00824800F057FFFCE0002201217F4800F0AB
:10026C0051FF002202217D4800F04CFF00220421A6
:10027C007A4800F047FF00220821784800F042FF3E
:10028C0001221021754800F03DFF01222021734806
:10029C0000F038FF00224021704800F033FFD8E016
:1002AC00012201216D4800F02DFF002202216B4834
:1002BC0000F028FF00220421684800F023FF0122EF
:1002CC000821664800F01EFF01221021634800F04F
:1002DC0019FF00224021614800F014FF0022202168
:1002EC005E4800F00FFFB4E0002201215B4800F0F3
:1002FC0009FF01220221594800F004FF00220421C9
:10030C00564800F0FFFE00220821544800F0FAFE87
:10031C0001221021514800F0F5FE002240214F48E7
:10032C0000F0F0FE002220214C4800F0EBFE90E0A3
:10033C0000220121494800F0E5FE01220221474834
:10034C0000F0E0FE00220421444800F0DBFE002215
:10035C000821424800F0D6FE002210213F4800F050
:10036C00D1FE002220213D4800F0CCFE002240218D
:10037C003A4800F0C7FE6CE000220121374800F03B
:10038C00C1FE00220221354800F0BCFE00220421EF
:10039C00324800F0B7FE01220821304800F0B2FECE
:1003AC00012210212D4800F0ADFE012220212B4806
:1003BC0000F0A8FE01224021284800F0A3FE48E0EE
:1003CC0000220121254800F09DFE00220221234835
:1003DC0000F098FE00220421204800F093FE002239
:1003EC0008211E4800F08EFE002210211B4800F050
:1003FC0089FE00222021194800F084FE00224021B1
:10040C00164800F07FFE24E000220121134800F082
:10041C0079FE00220221114800F074FE0022042112
:10042C000E4800F06FFE002208210C4800F06AFE16
:10043C0001221021094800F065FE00222021074806
:10044C0000F060FE00224021044800F05BFE00E05A
:10045C0000BF00BF0837BD4680BD00BF000C014087
:10046C0080B582B000AF78607B68092B00F2BC814C
:10047C0001A252F823F000BFAD04000801050008EA
:10048C0055050008A9050008FD05000851060008DF
:10049C00A5060008F90600084D070008A10700088A
:1004AC0000228021D34800F02DFE00224FF48071F1
:1004BC00D04800F027FE00224FF40071CD4800F028
:1004CC0021FE00224FF48061CA4800F01BFE00227E
:1004DC004FF40061C74800F015FE00224FF4805124
:1004EC00C44800F00FFE01224FF40051C14800F047
:1004FC0009FE7AE101228021BE4800F003FE0022B1
:10050C004FF48071BB4800F0FDFD00224FF40071E8
:10051C00B84800F0F7FD01224FF48061B54800F0B7
:10052C00F1FD01224FF40061B24800F0EBFD012215
:10053C004FF48051AF4800F0E5FD01224FF400511B
:10054C00AC4800F0DFFD50E100228021A94800F00A
:10055C00D9FD00224FF48071A64800F0D3FD012292
:10056C004FF40071A34800F0CDFD00224FF48061E0
:10057C00A04800F0C7FD00224FF400619D4800F038
:10058C00C1FD01224FF480519A4800F0BBFD0022BE
:10059C004FF40051974800F0B5FD26E10022802170
:1005AC00944800F0AFFD00224FF48071914800F0A8
:1005BC00A9FD00224FF400718E4800F0A3FD00222B
:1005CC004FF480618B4800F09DFD01224FF40061D7
:1005DC00884800F097FD01224FF48051854800F0C7
:1005EC0091FD00224FF40051824800F08BFDFCE09D
:1005FC00012280217F4800F085FD00224FF480719C
:10060C007C4800F07FFD00224FF40071794800F027
:10061C0079FD01224FF48061764800F073FD0122D0
:10062C004FF40061734800F06DFD00224FF400514F
:10063C00704800F067FD00224FF480516D4800F0C7
:10064C0061FDD2E0002280216A4800F05BFD0122AE
:10065C004FF48071674800F055FD00224FF4007193
:10066C00644800F04FFD00224FF48061614800F0B7
:10067C0049FD01224FF400615E4800F043FD002269
:10068C004FF400515B4800F03DFD00224FF48051C7
:10069C00584800F037FDA8E000228021554800F0B2
:1006AC0031FD01224FF48071524800F02BFD0022E5
:1006BC004FF400714F4800F025FD00224FF480618B
:1006CC004C4800F01FFD00224FF40061494800F037
:1006DC0019FD00224FF48051464800F013FD002212
:1006EC004FF40051434800F00DFD7EE000228021C4
:1006FC00404800F007FD00224FF480713D4800F0A7
:10070C0001FD00224FF400713A4800F0FBFC01227D
:10071C004FF48061374800F0F5FC01224FF4006182
:10072C00344800F0EFFC01224FF48051314800F0C6
:10073C00E9FC01224FF400512E4800F0E3FC54E098
:10074C00002280212B4800F0DDFC00224FF4807148
:10075C00284800F0D7FC00224FF40071254800F027
:10076C00D1FC00224FF48061224800F0CBFC002227
:10077C004FF400611F4800F0C5FC00224FF480517B
:10078C001C4800F0BFFC00224FF40051194800F047
:10079C00B9FC2AE000228021164800F0B3FC0022AC
:1007AC004FF48071134800F0ADFC00224FF400713F
:1007BC00104800F0A7FC00224FF480610D4800F0B7
:1007CC00A1FC01224FF400610A4800F09BFC0022BE
:1007DC004FF48051074800F095FC00224FF4005173
:1007EC00044800F08FFC00E000BF00BF0837BD4696
:1007FC0080BD00BF000C014080B582B000AF0A2361
:10080C007B606BE07B68052B34DD002204213748CC
:10081C0000F078FC00224021344800F073FC0122E7
:10082C002021324800F06EFC7B68072B0ADD012288
:10083C0010212E4800F066FC7B68073B1846FFF73A
:10084C000FFE11E07B68072B0EDC002210212748DD
:10085C0000F058FC01220821244800F053FC7B686E
:10086C00053B1846FFF7FCFD7B68053B1846FFF778
:10087C0067FC2CE0002220211C4800F043FC0022E5
:10088C0008211A4800F03EFC01220421174800F010
:10089C0039FC7B68022B0ADD01228021134800F011
:1008AC0031FC7B68023B1846FFF74AFC0CE0002247
:1008BC0080210E4800F026FC012240210B4800F05C
:1008CC0021FC7868FFF73CFC7868FFF7C9FD4FF412
:1008DC007A7000F095F97B68013B7B607B68002B9C
:1008EC0090DC00BF00BF0837BD4680BD000801404A
:1008FC0080B500AF00F022F900F005F800F03EF8EA
:10090C00FFF77AFFFCE780B590B000AF07F1180352
:10091C0028220021184601F019F83B1D00221A600C
:10092C005A609A60DA601A610223BB610123BB62D0
:10093C001023FB6200237B6307F11803184600F0B9
:10094C00F9FB0346002B01D000F06CF80F237B6001
:10095C000023BB600023FB6000233B6100237B6111
:10096C003B1D0021184600F065FE0346002B01D00C
:10097C0000F058F800BF4037BD4680BD80B586B04A
:10098C0000AF07F1080300221A605A609A60DA601F
:10099C00214B9B69204A43F0040393611E4B9B69D6
:1009AC0003F004037B607B681B4B9B691A4A43F082
:1009BC0008039361184B9B6903F008033B603B6889
:1009CC000022FC21154800F09DFB002243F6FF712C
:1009DC00134800F097FBFC23BB600123FB60002352
:1009EC003B6102237B6107F1080319460B4800F0B9
:1009FC000FFA43F6FF73BB600123FB6000233B61DE
:100A0C0002237B6107F108031946054800F000FA40
:100A1C0000BF1837BD4680BD0010024000080140E1
:100A2C00000C014080B400AF72B600BFFEE70000BE
:100A3C0080B485B000AF154B9B69144A43F0010399
:100A4C009361124B9B6903F00103BB60BB680F4BB6
:100A5C00DB690E4A43F08053D3610C4BDB6903F026
:100A6C0080537B607B680A4B5B68FB60FB6823F000
:100A7C00E063FB60FB6843F08063FB60044AFB6847
:100A8C00536000BF1437BD4680BC70470010024055
:100A9C000000014080B400AFFEE780B400AFFEE779
:100AAC0080B400AFFEE780B400AFFEE780B400AFC7
:100ABC00FEE780B400AF00BFBD4680BC704780B479
:100ACC0000AF00BFBD4680BC704780B400AF00BF14
:100ADC00BD4680BC704780B500AF00F075F800BF14
:100AEC0080BD80B400AF00BFBD4680BC7047000025
:100AFC000C480D490D4A002302E0D458C45004336D
:100B0C00C4188C42F9D30A4A0A4C002301E0136042
:100B1C000432A242FBD3FFF7E4FF00F0F3FEFFF731
:100B2C00E7FE7047000000200C000020A819000808
:100B3C000C0000202C000020FEE7000080B500AF68
:100B4C00084B1B68074A43F010031360032000F0A6
:100B5C002BF90F2000F008F8FFF76AFF0023184666
:100B6C0080BD00BF0020024080B582B000AF78602D
:100B7C00124B1A68124B1B7819464FF47A73B3FB5D
:100B8C00F1F3B2FBF3F3184600F035F90346002BF2
:100B9C0001D001230EE07B680F2B0AD80022796864
:100BAC004FF0FF3000F00BF9064A7B68136000230E
:100BBC0000E0012318460837BD4680BD0000002028
:100BCC00080000200400002080B400AF054B1B7807
:100BDC001A46054B1B681344034A136000BFBD46FD
:100BEC0080BC7047080000202800002080B400AFB3
:100BFC00024B1B681846BD4680BC7047280000207D
:100C0C0080B584B000AF7860FFF7F0FFB8607B6808
:100C1C00FB60FB68B3F1FF3F05D00A4B1B781A460B
:100C2C00FB681344FB6000BFFFF7E0FF0246BB68A4
:100C3C00D31AFA689A42F7D800BF00BF1037BD46E6
:100C4C0080BD00BF0800002080B485B000AF786084
:100C5C007B6803F00703FB600C4BDB68BB60BA6876
:100C6C004FF6FF031340BB60FB681A02BB681343CB
:100C7C0043F0BF6343F40033BB60044ABB68D360EA
:100C8C0000BF1437BD4680BC704700BF00ED00E0CC
:100C9C0080B400AF044BDB681B0A03F00703184653
:100CAC00BD4680BC704700BF00ED00E080B483B04F
:100CBC0000AF03463960FB7197F90730002B0ADB54
:100CCC003B68DAB20C4997F907301201D2B20B44E7
:100CDC0083F800230AE03B68DAB20849FB7903F099
:100CEC000F03043B1201D2B20B441A7600BF0C372F
:100CFC00BD4680BC704700BF00E100E000ED00E0A5
:100D0C0080B489B000AFF860B9607A60FB6803F01A
:100D1C000703FB61FB69C3F10703042B28BF042302
:100D2C00BB61FB690433062B02D9FB69033B00E072
:100D3C0000237B614FF0FF32BB6902FA03F3DA4305
:100D4C00BB681A407B699A404FF0FF317B6901FA0E
:100D5C0003F3D9437B680B40134318462437BD4635
:100D6C0080BC704780B582B000AF78607B68013B77
:100D7C00B3F1807F01D301230FE00A4A7B68013B6A
:100D8C0053600F214FF0FF30FFF790FF054B00220F
:100D9C009A60044B07221A60002318460837BD4698
:100DAC0080BD00BF10E000E080B582B000AF78607D
:100DBC007868FFF749FF00BF0837BD4680BD80B596
:100DCC0086B000AF0346B9607A60FB7300237B6189
:100DDC00FFF75EFF78617A68B9687869FFF790FF72
:100DEC00024697F90F3011461846FFF75FFF00BF18
:100DFC001837BD4680BD80B582B000AF786078688A
:100E0C00FFF7B0FF034618460837BD4680BD00000B
:100E1C0080B48BB000AF7860396000237B62002314
:100E2C003B6248E101227B6A02FA03F3FB613B68F7
:100E3C001B68FA691340BB61BA69FB699A4240F0BE
:100E4C0037813B685B68A34A93425ED0A14A9342C8
:100E5C0075D8A14A934258D09F4A93426FD89F4A63
:100E6C00934252D09D4A934269D89D4A93424CD0AA
:100E7C009B4A934263D89B4A934246D0994A9342E9
:100E8C005DD8122B2AD8122B59D801A252F823F074
:100E9C00170F0008F10E0008030F0008450F00089B
:100EAC004B0F00084B0F00084B0F00084B0F0008AE
:100EBC004B0F00084B0F00084B0F00084B0F00089E
:100ECC004B0F00084B0F00084B0F00084B0F00088E
:100EDC004B0F0008F90E00080D0F0008824A9342D0
:100EEC0013D02CE03B68DB683B6229E03B68DB6895
:100EFC0004333B6224E03B68DB6808333B621FE051
:100F0C003B68DB680C333B621AE03B689B68002B48
:100F1C0002D104233B6213E03B689B68012B05D193
:100F2C0008233B627B68FA691A6109E008233B627B
:100F3C007B68FA695A6103E000233B6200E000BF62
:100F4C00BB69FF2B01D87B6801E07B6804337B61B4
:100F5C00BB69FF2B02D87B6A9B0002E07B6A083BD3
:100F6C009B003B617B691A680F213B6901FA03F313
:100F7C00DB431A40396A3B6901FA03F31A437B6974
:100F8C001A603B685B6803F08053002B00F0908084
:100F9C00564B9B69554A43F001039361534B9B6934
:100FAC0003F00103BB60BB68514A7B6A9B080233A8
:100FBC0052F82330FB607B6A03F003039B000F2283
:100FCC0002FA03F3DB43FA681340FB607B68494A7F
:100FDC0093420DD07B68484A934207D07B68474ABE
:100FEC00934201D1022304E0032302E0012300E039
:100FFC0000237A6A02F0030292009340FA681343CA
:10100C00FB603B497B6A9B080233FA6841F823205A
:10101C003B685B6803F48033002B06D0384B1A68AE
:10102C003749BB6913430B6006E0354B1A68BB6943
:10103C00DB43334913400B603B685B6803F40033BC
:10104C00002B06D02E4B5A682D49BB6913434B60BD
:10105C0006E02B4B5A68BB69DB43294913404B60B4
:10106C003B685B6803F48013002B06D0244B9A6812
:10107C002349BB6913438B6006E0214B9A68BB691B
:10108C00DB431F4913408B603B685B6803F4001320
:10109C00002B06D01A4BDA681949BB691343CB6095
:1010AC0006E0174BDA68BB69DB4315491340CB608C
:1010BC007B6A01337B623B681A687B6A22FA03F312
:1010CC00002B7FF4AFAE00BF00BF2C37BD4680BCF9
:1010DC00704700BF000032100000311000002210D9
:1010EC00000021100000121000001110001002402E
:1010FC000000014000080140000C014000100140BC
:10110C000004014080B483B000AF78600B467B8054
:10111C0013467B707B78002B03D07A887B681A612E
:10112C0003E07B881A047B681A6100BF0C37BD464C
:10113C0080BC704780B586B000AF78607B68002BB0
:10114C0001D101236CE27B681B6803F00103002BC7
:10115C0000F08780924B5B6803F00C03042B0CD0DF
:10116C008F4B5B6803F00C03082B12D18C4B5B6824
:10117C0003F48033B3F5803F0BD1894B1B6803F428
:10118C000033002B6CD07B685B68002B68D101238B
:10119C0046E27B685B68B3F5803F06D1804B1B68E9
:1011AC007F4A43F4803313602EE07B685B68002B2E
:1011BC000CD17B4B1B687A4A23F480331360784B39
:1011CC001B68774A23F4802313601DE07B685B68FF
:1011DC00B3F5A02F0CD1724B1B68714A43F48023DA
:1011EC0013606F4B1B686E4A43F4803313600BE043
:1011FC006B4B1B686A4A23F480331360684B1B6883
:10120C00674A23F4802313607B685B68002B13D040
:10121C00FFF7ECFC386108E0FFF7E8FC02463B699D
:10122C00D31A642B01D90323FAE15D4B1B6803F439
:10123C000033002BF0D014E0FFF7D8FC386108E045
:10124C00FFF7D4FC02463B69D31A642B01D9032364
:10125C00E6E1534B1B6803F40033002BF0D100E0A4
:10126C0000BF7B681B6803F00203002B63D04C4B60
:10127C005B6803F00C03002B0BD0494B5B6803F04D
:10128C000C03082B1CD1464B5B6803F48033002BFA
:10129C0016D1434B1B6803F00203002B05D07B686F
:1012AC001B69012B01D00123BAE13D4B1B6823F0D4
:1012BC00F8027B685B69DB00394913430B603AE049
:1012CC007B681B69002B20D0364B01221A60FFF77C
:1012DC008DFC386108E0FFF789FC02463B69D31AA4
:1012EC00022B01D903239BE12D4B1B6803F0020356
:1012FC00002BF0D02A4B1B6823F0F8027B685B694B
:10130C00DB00274913430B6015E0264B00221A60C3
:10131C00FFF76CFC386108E0FFF768FC02463B699C
:10132C00D31A022B01D903237AE11D4B1B6803F05E
:10133C000203002BF0D17B681B6803F00803002B21
:10134C003AD07B689B69002B19D0174B01221A608D
:10135C00FFF74CFC386108E0FFF748FC02463B699C
:10136C00D31A022B01D903235AE10D4B5B6A03F00C
:10137C000203002BF0D0012000F0A6FA1CE00A4B6F
:10138C0000221A60FFF732FC38610FE0FFF72EFCE9
:10139C0002463B69D31A022B08D9032340E100BF54
:1013AC000010024000004242800442429E4B5B6AA5
:1013BC0003F00203002BE9D17B681B6803F00403E4
:1013CC00002B00F0A6800023FB75974BDB6903F024
:1013DC008053002B0DD1944BDB69934A43F080531F
:1013EC00D361914BDB6903F08053BB60BB68012375
:1013FC00FB758E4B1B6803F48073002B18D18B4B41
:10140C001B688A4A43F480731360FFF7EFFB386163
:10141C0008E0FFF7EBFB02463B69D31A642B01D9BA
:10142C000323FDE0814B1B6803F48073002BF0D089
:10143C007B68DB68012B06D17B4B1B6A7A4A43F035
:10144C00010313622DE07B68DB68002B0CD1764B1B
:10145C001B6A754A23F001031362734B1B6A724AB1
:10146C0023F0040313621CE07B68DB68052B0CD1B2
:10147C006D4B1B6A6C4A43F0040313626A4B1B6A84
:10148C00694A43F0010313620BE0674B1B6A664A1F
:10149C0023F001031362644B1B6A634A23F00403B9
:1014AC0013627B68DB68002B15D0FFF79FFB38615C
:1014BC000AE0FFF79BFB02463B69D31A41F28832E4
:1014CC00934201D90323ABE0574B1B6A03F0020391
:1014DC00002BEED014E0FFF789FB38610AE0FFF730
:1014EC0085FB02463B69D31A41F28832934201D9FB
:1014FC00032395E04C4B1B6A03F00203002BEED147
:10150C00FB7D012B05D1484BDB69474A23F0805307
:10151C00D3617B68DB69002B00F08180424B5B68F8
:10152C0003F00C03082B61D07B68DB69022B46D1DE
:10153C003F4B00221A60FFF759FB386108E0FFF7B8
:10154C0055FB02463B69D31A022B01D9032367E0F2
:10155C00354B1B6803F00073002BF0D17B681B6AC2
:10156C00B3F5803F08D1304B5B6823F400327B68C5
:10157C009B682D4913434B602B4B5B6823F474120F
:10158C007B68196A7B685B6A0B43274913434B6082
:10159C00274B01221A60FFF729FB386108E0FFF79F
:1015AC0025FB02463B69D31A022B01D9032337E0F2
:1015BC001D4B1B6803F00073002BF0D02FE01C4B6D
:1015CC0000221A60FFF712FB386108E0FFF70EFBF0
:1015DC0002463B69D31A022B01D9032320E0124B9C
:1015EC001B6803F00073002BF0D118E07B68DB69FB
:1015FC00012B01D1012313E00B4B5B68FB60FB68F3
:10160C0003F480327B681B6A9A4206D1FB6803F4B0
:10161C0070127B685B6A9A4201D0012300E00023C0
:10162C0018461837BD4680BD0010024000700040BF
:10163C006000424280B584B000AF786039607B684E
:10164C00002B01D10123D0E06A4B1B6803F0070388
:10165C003A689A4210D9674B1B6823F00702654918
:10166C003B6813430B60634B1B6803F007033A683A
:10167C009A4201D00123B8E07B681B6803F0020397
:10168C00002B20D07B681B6803F00403002B05D0D3
:10169C00594B5B68584A43F4E06353607B681B68A2
:1016AC0003F00803002B05D0534B5B68524A43F4FC
:1016BC0060535360504B5B6823F0F0027B689B686F
:1016CC004D4913434B607B681B6803F00103002BEF
:1016DC0040D07B685B68012B07D1474B1B6803F438
:1016EC000033002B15D101237FE07B685B68022B54
:1016FC0007D1414B1B6803F00073002B09D1012368
:10170C0073E03D4B1B6803F00203002B01D1012356
:10171C006BE0394B5B6823F003027B685B683649EE
:10172C0013434B60FFF762FAF8600AE0FFF75EFACA
:10173C000246FB68D31A41F28832934201D9032343
:10174C0053E02D4B5B6803F00C027B685B689B00DD
:10175C009A42EBD1274B1B6803F007033A689A4275
:10176C0010D2244B1B6823F0070222493B68134319
:10177C000B60204B1B6803F007033A689A4201D0B8
:10178C00012332E07B681B6803F00403002B08D0B4
:10179C00194B5B6823F4E0627B68DB6816491343E2
:1017AC004B607B681B6803F00803002B09D0124BBD
:1017BC005B6823F460527B681B69DB000E491343A2
:1017CC004B6000F021F802460B4B5B681B0903F0E1
:1017DC000F030A49CB5C22FA03F3094A1360094B45
:1017EC001B681846FFF7C0F9002318461037BD4692
:1017FC0080BD00BF0020024000100240901900087C
:10180C00000000200400002090B48AB000AF2A4BE6
:10181C003C1D0FCB84E80F0040F201233B800023DA
:10182C00FB610023BB6100237B6200237B610023EF
:10183C003B62224B5B68FB61FB6903F00C03042BDE
:10184C0002D0082B03D02DE01D4B3B622DE0FB6931
:10185C009B0C03F00F0307F12802134413F8243CEC
:10186C007B61FB6903F48033002B13D0134B5B6853
:10187C005B0C03F0010307F12802134413F8283C16
:10188C00BB617B690E4A02FB03F2BB69B2FBF3F34B
:10189C007B6204E07B690B4A02FB03F37B627B6A8D
:1018AC003B6202E0064B3B6200BF3B6A184628379E
:1018BC00BD4690BC704700BF801900080010024064
:1018CC0000127A0000093D0080B485B000AF78604A
:1018DC000A4B1B680A4AA2FB03235B0A7A6802FBC9
:1018EC0003F3FB6000BFFB685A1EFA60002BF9D1B2
:1018FC0000BF00BF1437BD4680BC704700000020FD
:10190C00D34D621070B500260C4D0D4C641BA41009
:10191C00A64209D100F022F800260A4D0A4C641B9D
:10192C00A410A64205D170BD55F8043B984701366A
:10193C00EEE755F8043B98470136F2E7A01900088A
:10194C00A0190008A0190008A419000803460244B5
:10195C00934200D1704703F8011BF9E7F8B500BFBB
:10196C00F8BC08BC9E467047F8B500BFF8BC08BC74
:04197C009E467047CC
:1019800002030405060708090A0B0C0D0E0F1010C0
:10199000000000000000000001020304060708091F
:0419A0003101000809
:0419A4000D01000829
:0C19A8000024F40010000000010000000A
:0400000508000AFDE8
:00000001FF
